:100000000C9435000C945D000C945D000C945D0024
:100010000C945D000C945D000C945D000C945D00EC
:100020000C945D000C945D000C945D000C945D00DC
:100030000C945D000C945D000C945D000C945D00CC
:100040000C94B0040C945D000C9420050C94FA04FC
:100050000C945D000C945D000C945D000C945D00AC
:100060000C945D000C945D00C90811241FBECFEFF5
:10007000D8E0DEBFCDBF22E0A2E9B1E001C01D9211
:10008000AF34B207E1F711E0A0E0B1E0E6E7F7E155
:1000900002C005900D92A239B107D9F710E0C5E36F
:1000A000D0E004C02197FE010E94AA09C433D10701
:1000B000C9F70E9452050C94B90B0C9400003FB78D
:1000C000F8948091A6019091A701A091A801B09108
:1000D000A90126B5A89B05C02F3F19F00196A11DC7
:1000E000B11D3FBFBA2FA92F982F8827BC01CD0182
:1000F000620F711D811D911D42E0660F771F881FE1
:10010000991F4A95D1F70895AF92BF92CF92DF928F
:10011000EF92FF920F931F93CF93DF936C017B01BC
:100120008B01040F151FEB015E01AE18BF08C0174D
:10013000D10759F06991D601ED91FC910190F081C0
:10014000E02DC6010995892B79F7C501DF91CF9183
:100150001F910F91FF90EF90DF90CF90BF90AF90E5
:100160000895FC01538D448D252F30E0842F90E0BD
:10017000821B930B541710F0CF96089501970895A2
:10018000FC01918D828D981761F0A28DAE0FBF2F6B
:10019000B11D5D968C91928D9F5F9F73928F90E0C1
:1001A00008958FEF9FEF08952FB7F8948091AA01DB
:1001B0009091AB01A091AC01B091AD012FBF8093A4
:1001C000B6019093B701A093B801B093B9018EEA3C
:1001D00091E00E94C00097FF26C02FB7F89480914D
:1001E000AA019091AB01A091AC01B091AD012FBFDC
:1001F0004091B6015091B7016091B8017091B90179
:10020000841B950BA60BB70B4091B2015091B30123
:100210006091B4017091B50184179507A607B707DF
:10022000B0F28FEF9FEF0895FC01918D828D9817AA
:1002300031F0828DE80FF11D858D90E008958FEFEC
:100240009FEF0895FC01918D228D892F90E0805CB5
:100250009F4F821B91098F73992708958EEA91E031
:100260000E94220121E0892B09F420E0822F0895C9
:1002700080E090E0892B29F00E942E0181110C94DE
:1002800000000895FC01A48DA80FB92FB11DA35A39
:10029000BF4F2C91848D90E001968F739927848FA6
:1002A000A689B7892C93A089B1898C9183708064C9
:1002B0008C93938D848D981306C00288F389E02D6A
:1002C00080818F7D80830895EF92FF920F931F931B
:1002D000CF93DF93EC0181E0888F9B8D8C8D9813F9
:1002E0001AC0E889F989808185FF15C09FB7F89405
:1002F000EE89FF896083E889F98980818370806451
:1003000080839FBF81E090E0DF91CF911F910F919B
:10031000FF90EF900895F62E0B8D10E00F5F1F4FAA
:100320000F731127E02E8C8D8E110CC00FB607FCB9
:10033000FACFE889F989808185FFF5CFCE010E9447
:100340004201F1CFEB8DEC0FFD2FF11DE35AFF4F72
:10035000F0829FB7F8940B8FEA89FB8980818062D5
:10036000CFCFCF93DF93EC01888D8823B9F0AA8992
:10037000BB89E889F9898C9185FD03C0808186FD60
:100380000DC00FB607FCF7CF8C9185FFF2CF8081AF
:1003900085FFEDCFCE010E944201E9CFDF91CF91E1
:1003A0000895E2E9F1E081919191892B31F081E0AA
:1003B000E43AF807C1F781E0089580E00895880FD6
:1003C000991FFC01EE56FE4F208131812115310528
:1003D000A9F0660F771FFB01EE56FE4F80819181D9
:1003E0002817390759F4440F551FFA01EE56FE4FEE
:1003F00081E0408151814217530709F080E0089560
:10040000CF93DF93D0E0C0E0AE014E5F5F4FBE01FF
:100410006F5F7F4FCE010E94DF01882349F0CC0F30
:10042000DD1FCE56DE4F88819981DF91CF910895EF
:100430002396C930D10541F7D0E0C0E0AE014A5F54
:100440005F4FBE016D5F7F4FCE010E94DF018111C2
:10045000E6CF2196C330D10589F748E050E064E04B
:1004600070E090E080E00E94DF01882329F0809115
:10047000920190919301D9CF46E050E064E070E0A2
:1004800082E090E00E94DF01882329F080919601AC
:1004900090919701CACF90E080E0C7CFAF92BF9212
:1004A000CF92DF92EF92FF920F931F93CF93DF9340
:1004B000CDB7DEB728970FB6F894DEBF0FBECDBF1D
:1004C0005C0172E9C72E71E0D72E760110E000E0E2
:1004D000F70180819181892B19F5B182A0820E9458
:1004E00000028A159B05C9F4F801EE0FFF1FEE56B6
:1004F000FE4F11821082C80128960FB6F894DEBF15
:100500000FBECDBFDF91CF911F910F91FF90EF9064
:10051000DF90CF90BF90AF900895F70111821082C5
:100520000F5F1F4FF2E0EF0EF11C0930110581F64D
:10053000AA94AB2809F456C0AA24A394B12C42E98A
:10054000E42E41E0F42E10E000E0F701808191817B
:10055000892B51F4B182A0820E9400028A159B056A
:1005600019F2F701118210820F5F1F4FF2E0EF0EB8
:10057000F11C0930110549F780919A0190919B0176
:1005800004E010E0892B09F4B6CF88E0E9E0F1E05F
:10059000DE01119601900D928A95E1F7FE013196E8
:1005A000CE01099601911191D801AA0FBB1FAE5639
:1005B000BE4F2D913C91232B09F49DCFE817F907ED
:1005C00089F710E000E0F601819191916F01892B8C
:1005D00009F491CF0F5F1F4F09301105A1F70FEFFD
:1005E0001FEF89CF52E0A52EB12CA9CF42E050E0F9
:1005F00063E271E08EEA91E00C948400CF93DF9384
:10060000FC0101900020E9F73197AF01481B590B1D
:10061000BC018EEA91E00E948400EC010E94F60287
:100620008C0F9D1FDF91CF910895CF93DF93FC0135
:1006300044815581608171818EEA91E00E9484003D
:10064000EC010E94F6028C0F9D1FDF91CF9108955F
:10065000FB0144815581FC01248135812417350734
:1006600078F080819181009759F0FB016081718160
:100670006115710529F00E94AB0B21E0892B09F06F
:1006800020E0822F08950F931F93CF93DF93EC0107
:1006900088819981009759F02A813B812617370775
:1006A00030F081E0DF91CF911F910F9108958B0180
:1006B0006F5F7F4F0E94D50A009759F09983888316
:1006C0001B830A832C813D81232B59F7FC01108267
:1006D000E8CF80E0E7CFEF92FF920F931F93CF9385
:1006E000DF936115710541F480E0DF91CF911F9197
:1006F0000F91FF90EF90089541155105B1F07B01E6
:10070000EC010C811D81040F151FB8010E944303E9
:10071000882351F3288139818C819D81B701820F13
:10072000931F0E94A40B1D830C8381E0DECFFB018D
:1007300044815581608171810C946B03CF93DF9369
:10074000EC0188819981009711F00E944C0A19826E
:1007500018821D821C821B821A82DF91CF9108951C
:10076000CF93DF93EC01FB0101900020E9F7319773
:10077000AF01461B570B0E946B03811103C0CE01D2
:100780000E949E03CE01DF91CF910895CF93DF9316
:10079000EC01FB0144815581608171810E946B03F2
:1007A000811103C0CE010E949E03CE01DF91CF9143
:1007B0000895EF92FF920F931F93CF93DF93EC0175
:1007C0007B018A01BA010E94430381110BC0CE0153
:1007D0000E949E03CE01DF91CF911F910F91FF9058
:1007E000EF9008951D830C83B701888199810E9441
:1007F000A40BF0CFFB0101900020E9F73197AF0186
:10080000461B570B0C94D9030F931F93CF93DF9381
:10081000CDB7DEB762970FB6F894DEBF0FBECDBF7F
:100820008C01CB01F8011182108213821282158291
:1008300014824AE0BE016F5F7F4F0E941D09BE0116
:100840006F5F7F4FC8010E94FA0362960FB6F8945B
:10085000DEBF0FBECDBFDF91CF911F910F910895E5
:10086000FB01DC0111961C921E9213961C921E92A3
:10087000129715961C921E9214978617970749F0A7
:10088000608171816115710521F0448155810C945D
:10089000D9030895FC0111821082138212821582FD
:1008A0001482FB0101900020E9F73197AF01461B4C
:1008B000570B0C94D903AF92BF92CF92DF92EF9275
:1008C000FF920F931F93CF93DF937C016B018A01FB
:1008D00084E0A82EB12C4430510518F45A0104E0EC
:1008E00010E065E271E0C7010E944A04D601149647
:1008F000CD91DC91AC16BD06E0F40C171D0708F491
:10090000E801D601ED91FC911197EC0FFD1F1081CC
:1009100010826D917C916A0D7B1DC7016115710577
:10092000A1F00E94FA03F60180819181C80FD91FBE
:100930001883C701DF91CF911F910F91FF90EF9026
:10094000DF90CF90BF90AF9008950E949E03EBCFB1
:10095000FC0180819181009711F00C944C0A08955C
:100960001F920F920FB60F9211242F933F938F93E4
:100970009F93AF93BF938091AA019091AB01A091F7
:10098000AC01B091AD013091A50123E0230F2D37CB
:1009900058F50196A11DB11D2093A5018093AA01D0
:1009A0009093AB01A093AC01B093AD018091A601EF
:1009B0009091A701A091A801B091A9010196A11D54
:1009C000B11D8093A6019093A701A093A801B093B5
:1009D000A901BF91AF919F918F913F912F910F905E
:1009E0000FBE0F901F90189526E8230F0296A11DA9
:1009F000B11DD2CF1F920F920FB60F9211242F93D9
:100A00003F934F935F936F937F938F939F93AF9396
:100A1000BF93EF93FF938EEA91E00E944201FF9112
:100A2000EF91BF91AF919F918F917F916F915F9166
:100A30004F913F912F910F900FBE0F901F901895DF
:100A40001F920F920FB60F9211242F938F939F93A3
:100A5000EF93FF93E091BE01F091BF018081E0919F
:100A6000C401F091C50182FD1BC090818091C70136
:100A70008F5F8F732091C801821741F0E091C70109
:100A8000F0E0E255FE4F958F8093C701FF91EF9103
:100A90009F918F912F910F900FBE0F901F901895DF
:100AA0008081F4CFCF93DF93CDB7DEB76E970FB6CB
:100AB000F894DEBF0FBECDBF789484B5826084BD4C
:100AC00084B5816084BD85B5826085BD85B5816052
:100AD00085BD80916E00816080936E0010928100D0
:100AE000809181008260809381008091810081608B
:100AF000809381008091800081608093800080914C
:100B0000B10084608093B1008091B00081608093D7
:100B1000B00080917A00846080937A0080917A009E
:100B2000826080937A0080917A00816080937A005D
:100B300080917A00806880937A001092C100E091E1
:100B4000BE01F091BF0182E08083E091BA01F09193
:100B5000BB011082E091BC01F091BD018FEC80835C
:100B60001092C601E091C201F091C30186E080833A
:100B7000E091C001F091C101808180618083E091AA
:100B8000C001F091C101808188608083E091C00143
:100B9000F091C101808180688083E091C001F09173
:100BA000C10180818F7D808314EAA12E11E0B12ED6
:100BB00088248394912C80E0282E80E0382E8EEAC1
:100BC00091E00E942201181619060CF05DC165E241
:100BD00071E0CE0149960E944A040E94D40097FD1C
:100BE0000FC08A30910561F089831A8241E050E09C
:100BF000BE016F5F7F4FCE0149960E946B03EDCF20
:100C0000C98CDA8CC114D10431F00D8D1E8D7601A2
:100C100001151105D1F4BE01675E7F4FCE014396E9
:100C20000E9430048F89988D892B09F444C066E2B4
:100C300071E08B899C890E949B0B892BE1F589E3EC
:100C400091E00E94FE0218C1730137012FEF621A72
:100C5000720AF7018081082E000C990B0E94570937
:100C6000892B91F7015011090C0D1D1DF801808190
:100C7000082E000C990B0E945709892B31F00E1594
:100C80001F0518F001501109F1CF0F5F1F4FA80188
:100C90004E195F095E8F4D8FCE14DF0420F4B7012B
:100CA000C6010E94920BE98DFA8D8D8D9E8DE80F05
:100CB000F91F1082B0CF6AE471E0CE0101960E9464
:100CC0004A04BE016F5F7F4FCE0143960E94280306
:100CD000182FCE0101960E94A804112349F14F89D3
:100CE000588DBE016D5E7F4FCE0101960E945B0460
:100CF00089819A810097C1F00E94F60870930201E1
:100D000060930101CE0101960E94A804E2E9F1E09E
:100D100022E111922A95E9F781E080930001109277
:100D2000A4018FE491E08DCF60E070E0CB01E6CFCD
:100D300067E671E0CE0101960E944A04BE016F5F32
:100D40007F4FCE0143960E942803182FCE010196B3
:100D50000E94A8044F89588D112309F496C1BE0141
:100D60006D5E7F4FCE0101960E945B0489819A815E
:100D7000C12CD12C7601009719F00E94F6086B0166
:100D8000CE0101960E94A804E9E0CE16D10450F4E9
:100D9000C601F601EE0FFF1FEE56FE4F2081318196
:100DA000232B19F08BE591E04CCF2091010130917C
:100DB00002012130310509F008C14091000121E014
:100DC00030E0411102C022E030E0FC01EE0FFF1FD5
:100DD000EE56FE4F31832083F1E04F274093000110
:100DE0006CE671E0CE010D960E944A0472E9E72E8E
:100DF00071E0F72E8701F801619171918F01CE01A9
:100E000001960E940404BE016F5F7F4FCE010D96D4
:100E10000E949703CE0101960E94A804A016B10675
:100E200051F70E940002181619060CF0D1C0BC013F
:100E3000CE0107960E940404BE01635F7F4FCE017E
:100E400001960E94300463E771E0CE0101960E9492
:100E5000B003BE01695F7F4F0E94C6030E94150365
:100E6000CE0101960E94A804CE0107960E94A80414
:100E7000CE010D960E94A804CE0143960E94A804BC
:100E8000CE0149960E94A80480910101909102012F
:100E9000039709F08EC08091A401882309F489C0CA
:100EA0000E94D101811185C00E940002892B09F0A6
:100EB00080C00E945F006B017C0158EE452E53E01C
:100EC000552E612C712C0E945F006C197D098E09D2
:100ED0009F09683E734081059105A8F3F1E04F1A20
:100EE00051086108710828EEC20E23E0D21EE11CF1
:100EF000F11C411451046104710429F781E090E070
:100F00000E944E0297FD55C0880F991FFC01EE56B6
:100F1000FE4F918280826CE671E0CE010D960E94B8
:100F20004A0442E9E42E41E0F42E8701F801619180
:100F300071918F01CE0101960E940404BE016F5F82
:100F40007F4FCE010D960E949703CE0101960E941D
:100F5000A804A016B10651F70E940002181619063F
:100F60000CF0B6C0BC01CE0107960E940404BE017D
:100F7000635F7F4FCE0101960E94300463E771E00A
:100F8000CE0101960E94B003BE01695F7F4F0E94AF
:100F9000C6030E941503CE0101960E94A804CE014B
:100FA00007960E94A8041092A401CE010D960E94FB
:100FB000A8042114310409F402CE0E942E018823D2
:100FC00009F4F2CD0E940000EFCD9182808208CF1B
:100FD0000E94D1018823A1F0BE01635F7F4FCE0143
:100FE00001960E94300469E771E0CE0101960E94EB
:100FF000B0030E941503CE0101960E94A80438CFC9
:1010000080910101909102010197A9F182E090E0A5
:101010000E944E0297FD2FC0880F991FFC01EE56CB
:10102000FE4F82E090E0918380836CE671E0CE0118
:101030000D960E94FA03F701619171917F01CE0133
:1010400001960E940404BE016F5F7F4FCE010D9692
:101050000E949703CE0101960E94A804E016F106B3
:1010600051F70E940002181619060CF4E0CE0E94F7
:10107000D1018111B1CFBE01635F7F4FCE010196D7
:101080000E9430046FE771E0B0CF452B09F4F4CE35
:101090006CE871E08B899C890E949B0B892B09F07D
:1010A000EBCE2091010130910201E2E9F1E082E111
:1010B00011928A95E9F7E1E0E093000181E02330A5
:1010C000310509F080E08093A40189E891E0B9CD71
:1010D0000E94D101BE01635F7F4F811138C082E061
:1010E00090E00E944E0297FD60CF880F991FFC018F
:1010F000EE56FE4F82E090E0918380836CE671E0D3
:10110000CE010D960E94FA03F701619171917F0162
:10111000CE0101960E940404BE016F5F7F4FCE0195
:101120000D960E949703CE0101960E94A8040E1509
:101130001F0551F70E940002181619060CF412CF71
:101140000E94D101BE01635F7F4F882389F0CE01E9
:1011500001960E94300469E771E0CE0101960E9479
:10116000B0030E941503CE0101960E94A8041BCF74
:10117000CE0101960E9430046FE771E0CE01019626
:101180000E94B0030E941503CE0101960E94A8049C
:101190000CCFEEEAF1E01382128288EE93E0A0E039
:1011A000B0E084839583A683B78385E191E0918342
:1011B000808385EC90E09587848784EC90E0978726
:1011C000868780EC90E0918B808B81EC90E0938B14
:1011D000828B82EC90E0958B848B86EC90E0978BF1
:1011E000868B118E128E138E148E08951F93FC0120
:1011F00099278827BC01E89411911032E9F319303E
:1012000010F01E30C8F31B3251F01D3249F46894BF
:1012100006C00E942809610F711D811D911D119149
:1012200010531A30B0F33EF4909580957095619507
:101230007F4F8F4F9F4F1F910895BB274A3031F446
:10124000992322F4BDE2909581959F4F0C943E091D
:10125000592F482F372F262F660F771F881F991F6A
:10126000660F771F881F991F620F731F841F951FBA
:10127000660F771F881F991F0895BB27FB0155270D
:10128000AA27880F991FAA1FA41710F0A41B8395E3
:101290005051B9F7A05DAA3308F0A95DA19300975A
:1012A00079F7B111B1931192CB010C9460099111AE
:1012B0000C947009803219F089508550C8F7089550
:1012C000DC01FC01672F71917723E1F7329704C0AD
:1012D0007C916D9370836291AE17BF07C8F3089538
:1012E0009927882708952F923F924F925F926F928D
:1012F0007F928F929F92AF92BF92CF92DF92EF92A6
:10130000FF920F931F93CF93DF93CDB7DEB7CA1B26
:10131000DB0B0FB6F894DEBF0FBECDBF09942A8851
:10132000398848885F846E847D848C849B84AA84F9
:10133000B984C884DF80EE80FD800C811B81AA8186
:10134000B981CE0FD11D0FB6F894DEBF0FBECDBF51
:10135000ED010895EE0FFF1F0590F491E02D099423
:101360000F931F93CF93DF938230910510F482E0A7
:1013700090E0E0914D02F0914E0230E020E0B0E0CC
:10138000A0E0309799F42115310509F44AC0281BD3
:10139000390B24303105D8F58A819B81611571059F
:1013A00089F1FB0193838283FE0111C04081518149
:1013B0000281138148175907E0F04817590799F43B
:1013C000109761F012960C93129713961C93329615
:1013D000CF01DF91CF911F910F91089500934D029E
:1013E00010934E02F4CF2115310551F042175307E7
:1013F00038F0A901DB019A01BD01DF01F801C1CF7D
:10140000EF01F9CF90934E0280934D02CDCFFE01B4
:10141000E20FF31F8193919322503109398328837E
:10142000D7CF20914B0230914C02232B41F42091D5
:1014300005013091060130934C0220934B0220911C
:101440000301309104012115310541F42DB73EB758
:101450004091070150910801241B350BE0914B028C
:10146000F0914C02E217F307A0F42E1B3F0B281754
:10147000390778F0AC014E5F5F4F2417350748F00D
:101480004E0F5F1F50934C0240934B0281939193F8
:101490009FCFF0E0E0E09CCFCF93DF930097E9F09F
:1014A000FC01329713821282A0914D02B0914E023C
:1014B000ED0130E020E01097A1F420813181820F0E
:1014C000931F20914B0230914C022817390709F0E5
:1014D00061C0F0934C02E0934B02DF91CF910895ED
:1014E000EA01CE17DF07E8F54A815B819E014115CD
:1014F0005105B1F7E901FB83EA8349915991C40F82
:10150000D51FEC17FD0761F4808191810296840F4D
:10151000951FE90199838883828193819B838A83C4
:10152000F0E0E0E012968D919C9113970097B9F549
:101530002D913C911197CD010296820F931F20911E
:101540004B0230914C022817390739F6309751F584
:1015500010924E0210924D02B0934C02A0934B0297
:10156000BCCFD383C28340815181840F951FC8179C
:10157000D90761F44E5F5F4F88819981480F591FE9
:10158000518340838A819B81938382832115310516
:1015900009F0B0CFF0934E02E0934D029ECFFD01D3
:1015A000DC01C0CF13821282D7CFB0E0A0E0EBED18
:1015B000FAE00C9475098C01009751F4CB010E945C
:1015C000B0098C01C801CDB7DEB7E0E10C949109F8
:1015D000FC01E60FF71F9C0122503109E217F307C7
:1015E00008F49DC0D901CD91DC911197C617D7079A
:1015F00098F0C530D10530F3CE01049786179707D0
:1016000008F3C61BD70B2297C193D1936D937C939C
:10161000CF010E944C0AD6CF5B01AC1ABD0A4C0127
:101620008C0E9D1EA0914D02B0914E02512C412C6A
:10163000F12CE12C109731F580914B0290914C02E6
:101640008815990509F05CC04616570608F058C081
:101650008091030190910401009741F48DB79EB7EA
:101660004091070150910801841B950BE817F90779
:1016700008F055C0F0934C02E0934B02F9017183DE
:101680006083A0CF8D919C91119712966C901297C8
:1016900013967C901397A815B90559F56C0142E093
:1016A000C40ED11CCA14DB0420F1AC014A195B0939
:1016B000DA011296159780F062827382518340831B
:1016C000D9016D937C93E114F10471F0D701139665
:1016D000FC93EE93129776CF22968C0F9D1FF90103
:1016E00091838083F301EFCFF0934E02E0934D029C
:1016F00069CF4816590608F42C017D01D3019ACF11
:10170000CB010E94B0097C01009749F0AE01B801FD
:101710000E94920BC8010E944C0A870153CF10E02F
:1017200000E050CFFB01DC0102C001900D9241505E
:101730005040D8F70895FB01DC018D91019080198C
:101740000110D9F3990B0895FB01DC0101900D9272
:101750000020E1F70895FB01DC014150504030F0DA
:101760008D910190801919F40020B9F7881B990B0D
:061770000895F894FFCF7C
:1017760001010000004F0280000000020006000880
:10178600000000000064018400B100B1012201C024
:101796000014010D0A003C746573745F636F6E6E0E
:1017A600656374696F6E2F3E003C636F6E6E656392
:1017B60074696F6E5F6F6B2F3E004D4F4445004F4F
:1017C6004B3A4D4F44455F534554004552523A49B2
:1017D6004E56414C49445F4D4F564500424F41528B
:1017E600443A003A57494E3A003A44524157003A71
:1017F600434F4E54494E5545004F4B3A524553457B
:0218060054008C
:00000001FF
